:020000040800F2
:10000000A8040020A1010008B70D0008AD0C0008ED
:10001000B50D0008AD020008B90F0008000000008F
:10002000000000000000000000000000DB0D0008E0
:10003000AF02000800000000D90D0008DD0D000827
:10004000BB010008BB010008BB010008BB010008A0
:10005000BB010008BB010008BB010008BB01000890
:10006000BB010008BB010008BB010008BB01000880
:10007000BB010008BB010008BB010008BB01000870
:10008000BB010008BB010008BB010008BB01000860
:10009000BB010008BB010008BB010008BB01000850
:1000A000BB010008BB010008BB010008BB01000840
:1000B000BB010008BB010008BB010008BB01000830
:1000C000BB010008BB010008BB010008BB01000820
:1000D000BB010008BB010008BB010008BB01000810
:1000E000BB010008BB010008BB010008BB01000800
:1000F000BB010008BB010008BB010008BB010008F0
:10010000BB010008BB010008BB010008BB010008DF
:10011000BB010008BB010008BB010008BB010008CF
:10012000BB010008BB010008BB010008BB010008BF
:10013000BB010008BB010008BB010008BB010008AF
:10014000BB010008BB010008BB010008BB0100089F
:10015000BB010008BB010008BB010008BB0100088F
:10016000BB010008BB010008BB010008BB0100087F
:10017000BB010008BB010008BB0100080000000033
:10018000BB010008BB010008DFF810D000F07CF8CC
:1001900000480047F90F0008AFF30080A8040020D2
:1001A0000648804706480047FEE7FEE7FEE7FEE711
:1001B000FEE7FEE7FEE7FEE7FEE7FEE7750E000856
:1001C000890100082DE9F05F0546002092469B4614
:1001D00088460646814640241BE02846414647465D
:1001E000224600F041F853465A46C01A914110D3B6
:1001F00011461846224600F028F82D1A67EB010830
:100200004F4622460120002100F01FF817EB00099D
:100210004E41201EA4F10104DFDC484631462A4647
:100220004346BDE8F09FD2B201E000F8012B491E21
:10023000FBD270470022F6E710B513460A46044683
:100240001946FFF7F0FF204610BD202A04DB203AB4
:1002500000FA02F1002070479140C2F1200320FA19
:1002600003F3194390407047202A04DB203A21FA17
:1002700002F00021704721FA02F3D040C2F12002BF
:100280009140084319467047064C074D06E0E06868
:1002900040F0010394E8070098471034AC42F6D3CD
:1002A000FFF776FF2C1000084C100008FEE770479F
:1002B00072B6FEE72DE9F84F00224FF00108032542
:1002C0004FF00F0E0B6808FA02F42340A3426ED1E0
:1002D0004E68012E05D0022E03D0112E01D0122E11
:1002E00012D186684FEA420C05FA0CF7BE43CF687C
:1002F00007FA0CF7374387604668A6430C79C4F3C6
:100300000014944034434460C668570005FA07FC63
:100310008C6826EA0C06BC403443C4604C68022C4E
:1003200001D0122C13D1D40800EB8404A346D4F8D6
:10033000209054074FEAD46A0EFA0AF629EA060911
:100340000E6906FA0AF646EA0906CBF82060066846
:100350000C7926EA0C0604F00304BC403443046024
:100360004C68E40065D5364C266846F48046266025
:10037000246822F0030604F480440094314C344491
:10038000A446D4F808489607370F0EFA07F6B44388
:100390002D4EB04201D1002624E02C4EB04201D1B6
:1003A00001261FE02A4EB04202D102261AE040E0A8
:1003B000284EB04201D1032614E0274EB04201D1AD
:1003C00004260FE0254EB04201D105260AE0244E56
:1003D000B04201D1062605E0224EB04201D10726E7
:1003E00000E00826BE402643CCF808681E4E34685C
:1003F0004F689C43FF0300D51C4334601A4C241DF6
:1004000026684F689E43BF0300D51E432660164EE4
:10041000083634684F689C43FF0200D51C433460A3
:10042000114E0C3634684F689C43BF0200D51C4304
:100430003460521C102AFFF445AFBDE8F88F00006D
:1004400044380240003001400000024000040240F5
:1004500000080240000C024000100240001402405C
:1004600000180240001C0240003C01400AB18161BA
:1004700070470904FBE700000148806870470000EE
:1004800000000020024881680278114481607047B2
:10049000000000200B4810B5016841F400710160B4
:1004A000016841F480610160016841F4807101607C
:1004B000032000F061F8002000F006F800F024F8B6
:1004C000002010BD003C024070B50D4D04464FF4B5
:1004D0007A712878B1FBF0F00A490968B1FBF0F0B5
:1004E00000F068FB48B9102C07D200222146501EAC
:1004F00000F022F800206C6070BD012070BD00008B
:10050000000000200C0000200A4808B5016841F4F2
:1005100080410160006800F4804000900548001FA1
:10052000016841F080510160006800F08050009047
:1005300008BD000044380240F0B40E4B1B680C4666
:10054000C3F30223C3F10705042D00D90425191DA7
:10055000072901D2002300E0DB1E012606FA05F17F
:10056000491E214099409E40761E16403143F0BC02
:1005700000F023BD0CED00E0064900F0070208681A
:100580004FF6FF03184040EA0220034A1043086078
:10059000704700000CED00E00000FA052DE9F0477F
:1005A0000E46050065D0DFF81481D8F80000F7B2D8
:1005B00000F00F00B04207D288F80070D8F80000B1
:1005C00000F00F00B04254D128683D4C810712D58D
:1005D000400703D5206840F4E050206028780007E9
:1005E00003D5206840F4604020602068A96820F0AE
:1005F000F000084320602878C0072DD03049686893
:100600000839012812D0022813D0032811D0096814
:10061000890700292DDA216821F0030101432160B7
:10062000FFF72AFF814641F2883A0EE00968890304
:10063000EFE709688901ECE7FFF71EFFA0EB09016E
:10064000514502D90320BDE8F0872068696800F0B1
:100650000C00B0EB810FEFD1D8F80010404601F04C
:100660000F01B14207D90770006800F00F00B042D7
:1006700001D00120E7E72878400705D52068E96820
:1006800020F4E050084320602878000706D5206851
:10069000296920F4604040EAC100206000F038F889
:1006A0002168084AC1F30311515CC840064908603B
:1006B00006480068FFF708FF0020C4E7003C02403E
:1006C00008380240121000080C000020040000202E
:1006D0000448054900680968044AC1F38221515C55
:1006E000C84070470C000020083802402210000863
:1006F0000448054900680968044AC1F34231515C65
:10070000C84070470C000020083802402210000842
:10071000154810B5006810F00C02144813D04110B1
:10072000042A0FD0082A0ED10F4C241F22682368F8
:1007300002F03F025B0207D52068C0F38810A0FBDF
:10074000010106E0084610BD2168C1F38811A1FB34
:1007500000010023FFF736FD2168C1F30141491C68
:100760004900B0FBF1F010BD083802400024F4004D
:100770002DE9F84F04006ED02078DFF83C93C007D5
:10078000A9F104054AD009F104000168C1F381010F
:10079000012908D00068C0F3810002280AD1D9F8E5
:1007A0000000400206D52868800337D5606800281D
:1007B000E1D033E06068B0F5803F10D0B0F5A02FF5
:1007C000286810D020F480302860286820F4802029
:1007D00028606068A8B1FFF74FFE06460DE0286864
:1007E00040F48030F4E740F480202860F7E700BF51
:1007F000FFF742FE801B642873D828688003F7D572
:100800000CE0FFF739FE064605E000BFFFF734FEB7
:10081000801B6428F0D828688003F7D42078DFF89C
:100820009C8280074FF0000A3ED5A348001D016856
:1008300011F00C0F08D00068C0F3810002280BD122
:10084000D9F80000400207D42868800716D5E06870
:10085000012800D112E02BE1E068B8B10120C8F80E
:100860000000FFF709FE064605E000BFFFF704FEA3
:10087000801B0228C0D828688007F7D5286821691E
:1008800020F0F80040EAC10028600DE0C8F800A0A0
:10089000FFF7F2FD064604E0FFF7EEFD801B02289D
:1008A0001FD828688007F7D42078000722D5824E09
:1008B00083486169703671B101210160FFF7DCFD89
:1008C000074604E0FFF7D8FDC01B022809D83068AE
:1008D0008007F7D50EE0C0F800A0FFF7CDFD074672
:1008E00005E082E0FFF7C8FDC01B02287DD8306814
:1008F0008007F7D42078400768D5DFF8BCB100271F
:100900000BF13C0BDBF80000C0000BD4DBF800104F
:1009100041F08051CBF80010DBF80000012700F017
:1009200080500090674E3068C00510D4306840F4A5
:1009300080703060FFF7A0FD009005E0FFF79CFDA0
:100940000099401A022850D83068C005F6D55A4E92
:10095000A0686C3601280FD00528306810D020F030
:1009600001003060306820F004003060A068B8B149
:10097000FFF782FD00900FE0306840F00100F4E7DF
:1009800040F004003060F7E7FFF776FD0099411A68
:1009900041F28830814266D830688007F4D50EE095
:1009A000FFF76AFD009007E0FFF766FD0099411A26
:1009B00041F28830814256D830688007F4D42FB194
:1009C000DBF8001021F08051CBF80010A069C8B30B
:1009D0003949091D0968C1F3810102294AD0022859
:1009E000504607D0C8F8600000E03CE0FFF744FD47
:1009F00004463BE04746C8F86000FFF73DFD064669
:100A000005E000BFFFF738FD801B02282BD82868BF
:100A10008001F7D4D4E907010843A16A2A4A4908AA
:100A200002EB0141626A41EA8211084394F82C10FA
:100A300040EA0161C9F8001001203866FFF71CFD8B
:100A4000044606E036E000BFFFF716FD001B022853
:100A500009D828688001F7D52CE000BFFFF70CFD0E
:100A6000001B022802D90320BDE8F88F2868800106
:100A7000F4D41FE00128F7D0D9F80000E26900F4AF
:100A80008001914214D1226A00F03F0191420FD1BE
:100A900047F6C071626A0140914209D1A26A00F42E
:100AA0004031914204D1E16A00F07060884201D087
:100AB0000120D9E70020D7E7043802400000474270
:100AC000800E4742007000400000FFFF70B5040038
:100AD00005D00025A56294F8510010B106E0012070
:100AE00070BD84F85050204600F030F8022084F8A1
:100AF00051002068016821F040010160D4E9010142
:100B00000843D4E903121143084361690843218B68
:100B100001F400710843E1690843216A0843A16AAE
:100B2000084321680860A069042101EA1040616A55
:100B30000843216848602068C16921F40061C161EF
:100B40006565012084F85100002070BD10B586B0A5
:100B5000044614216846FFF76DFB1349206888425C
:100B600020D112480021026842F4805202600068DD
:100B700000F4805005900D481438026842F00102DC
:100B80000260006800F001000590E0200090022063
:100B9000CDE9010103200390052004906946044833
:100BA000FFF788FB06B010BD00300140443802401A
:100BB0000000024010B5401EB0F1807F01D301203B
:100BC00010BD4FF0E02460610F21601700F0F5F9CF
:100BD0000020A06107202061002010BD70B5040036
:100BE00004D094F83900002510B106E0012070BD52
:100BF00084F83850204600F023F8242084F8390087
:100C00002068C16821F40051C160204600F040F91D
:100C10002068016921F4904101612068416921F057
:100C20002A0141612068C16841F40051C160E56357
:100C3000202084F8390084F83A00002070BD0000BC
:100C400010B586B0044614216846FFF7F3FA14493C
:100C50002068884221D113480021026842F0100226
:100C60000260006800F0100005900E481438026819
:100C700042F001020260006800F0010005904FF4AC
:100C8000C06000900220CDE90101032003900720FD
:100C9000049069460448FFF70DFB06B010BD000044
:100CA000001001404438024000000240FEE700000E
:100CB00070B586B014216846FFF7BCFA1B480024C3
:100CC000016841F080010160016801F08001059137
:100CD000016841F001010160016801F00101059125
:100CE000016841F0020101600068114E00F002004D
:100CF0000590002202213046FFF7B8FB01220421B3
:100D00003046FFF7B3FB0125CDE900546946304674
:100D10000294FFF7CFFA06200090CDE9015469460E
:100D200030460394FFF7C6FA06B070BD3038024073
:100D300000040240104810B50E4901604FF4827162
:100D4000416000218160C1604FF400720161C0E91F
:100D500005121822C0E90721416281620A21C1629D
:100D6000FFF7B4FE002803D0BDE81040FFF7A0BA9B
:100D700010BD000000300140100000200C4810B5EC
:100D80000A4901604FF4E1314160002181600C2289
:100D9000C160C0E904128161C161FFF71FFF002833
:100DA00003D0BDE81040FFF783BA10BD001001402A
:100DB00068000020FEE7FEE710B5064C0022042183
:100DC0002046FFF753FB20460122BDE810400821D2
:100DD000FFF74CBB000C024070477047FFF752BB57
:100DE00030B593B030216846FFF724FA14210CA8DF
:100DF000FFF720FA1D480025016841F0805101608D
:100E0000006800F0805011901948016841F4804159
:100E100001600068022400F48040119001200090DD
:100E2000000401908001CDE9064008AA0420A82111
:100E300082E813000B906846FFF79AFC08B172B67F
:100E4000FEE70CA90F2081E831004FF4A0500F906D
:100E50004FF48050109005210CA8FFF79FFB00284D
:100E600001D072B6FEE713B030BD0000403802403A
:100E7000007000400548016841F4700101600349B9
:100E80004FF00060803908607047000088ED00E096
:100E90002DE9F041044600680169E26821F44051FF
:100EA000114301612169A068E26908436169114346
:100EB00008432168CA6849F20C639A430243CA6036
:100EC00020684169A26921F4407111434161E069E0
:100ED000192764253226B0F5004F354A3549206878
:100EE0004FF0000806D0884201D0904236D1FFF77B
:100EF000FFFB35E0884201D0904202D1FFF7F8FBBA
:100F000001E0FFF7E5FB61684A18A0FB070148EB29
:100F10000803FFF757F90146B0FBF5F00201B1FBFA
:100F2000F5F06FF01803584301EB800006EBC000AA
:100F3000B0FBF5F000F0F80002EB4002B1FBF5F079
:100F4000584301EB800006EBC000B0FBF5F000F069
:100F50000700216810448860BDE8F081FFF7B8FB06
:100F600061688B0F8A00A0FB0701FFF72BF9014690
:100F7000B0FBF5F06FF01802504301EB800006EB78
:100F80000010B0FBF5F000F0F002B1FBF5F002EB61
:100F90000012B1FBF5F06FF01803584301EB80002D
:100FA00006EB0010B0FBF5F000F00F00D1E70000F9
:100FB0000014014000100140FEE70907090E002857
:100FC00004DB00F1E02080F80014704700F00F000F
:100FD00000F1E02080F8141D704702E008C8121FDD
:100FE00008C1002AFAD170477047002001E001C112
:100FF000121F002AFBD17047FFF74CFAFFF7F0FEF3
:10100000FFF756FEFFF796FEFFF7B8FEFFF7D4FE98
:10101000FEE70000000000000000010203040607D4
:101020000809000000000102030400004C10000841
:101030000000002010000000DA0F00085C1000081B
:101040001000002098040000EA0F000801000000D2
:0C10500010000000000000000024F4006C
:040000050800018965
:00000001FF
